{
  "contractName": "BlockchainForPeace",
  "abi": [
    {
      "constant": true,
      "inputs": [],
      "name": "charity",
      "outputs": [
        {
          "name": "",
          "type": "address"
        }
      ],
      "payable": false,
      "stateMutability": "view",
      "type": "function"
    },
    {
      "constant": true,
      "inputs": [],
      "name": "raised",
      "outputs": [
        {
          "name": "",
          "type": "uint256"
        }
      ],
      "payable": false,
      "stateMutability": "view",
      "type": "function"
    },
    {
      "constant": true,
      "inputs": [
        {
          "name": "",
          "type": "uint256"
        }
      ],
      "name": "donations",
      "outputs": [
        {
          "name": "donor",
          "type": "address"
        },
        {
          "name": "message",
          "type": "string"
        },
        {
          "name": "value",
          "type": "uint256"
        }
      ],
      "payable": false,
      "stateMutability": "view",
      "type": "function"
    },
    {
      "inputs": [],
      "payable": false,
      "stateMutability": "nonpayable",
      "type": "constructor"
    },
    {
      "payable": true,
      "stateMutability": "payable",
      "type": "fallback"
    },
    {
      "anonymous": false,
      "inputs": [
        {
          "indexed": true,
          "name": "from",
          "type": "address"
        },
        {
          "indexed": false,
          "name": "amount",
          "type": "uint256"
        },
        {
          "indexed": false,
          "name": "message",
          "type": "string"
        }
      ],
      "name": "Donate",
      "type": "event"
    },
    {
      "constant": false,
      "inputs": [
        {
          "name": "_message",
          "type": "string"
        }
      ],
      "name": "messageForPeace",
      "outputs": [],
      "payable": true,
      "stateMutability": "payable",
      "type": "function"
    },
    {
      "constant": true,
      "inputs": [
        {
          "name": "_index",
          "type": "uint256"
        }
      ],
      "name": "getDonation",
      "outputs": [
        {
          "name": "",
          "type": "address"
        },
        {
          "name": "",
          "type": "string"
        },
        {
          "name": "",
          "type": "uint256"
        }
      ],
      "payable": false,
      "stateMutability": "view",
      "type": "function"
    },
    {
      "constant": true,
      "inputs": [],
      "name": "getDonationLength",
      "outputs": [
        {
          "name": "",
          "type": "uint256"
        }
      ],
      "payable": false,
      "stateMutability": "view",
      "type": "function"
    },
    {
      "constant": true,
      "inputs": [],
      "name": "getRaised",
      "outputs": [
        {
          "name": "",
          "type": "uint256"
        }
      ],
      "payable": false,
      "stateMutability": "view",
      "type": "function"
    }
  ],
  "bytecode": "0x608060405234801561001057600080fd5b50739db2987a5b5ed98973bdfad2f902ae9f46e34319600160006101000a81548173ffffffffffffffffffffffffffffffffffffffff021916908373ffffffffffffffffffffffffffffffffffffffff16021790555061099d806100756000396000f300608060405260043610610083576000357c0100000000000000000000000000000000000000000000000000000000900463ffffffff16806344a6a8f0146100fd578063934aa02314610128578063a9b5ae831461017f578063b692c89d146101db578063ef07a81f14610206578063f0ea4bfc146102e6578063f8626af814610311575b346000808282540192505081905550600160009054906101000a900473ffffffffffffffffffffffffffffffffffffffff1673ffffffffffffffffffffffffffffffffffffffff166108fc349081150290604051600060405180830381858888f193505050501580156100fa573d6000803e3d6000fd5b50005b34801561010957600080fd5b506101126103f1565b6040518082815260200191505060405180910390f35b34801561013457600080fd5b5061013d6103fe565b604051808273ffffffffffffffffffffffffffffffffffffffff1673ffffffffffffffffffffffffffffffffffffffff16815260200191505060405180910390f35b6101d9600480360381019080803590602001908201803590602001908080601f0160208091040260200160405190810160405280939291908181526020018383808284378201915050505050509192919290505050610424565b005b3480156101e757600080fd5b506101f0610639565b6040518082815260200191505060405180910390f35b34801561021257600080fd5b5061023160048036038101908080359060200190929190505050610642565b604051808473ffffffffffffffffffffffffffffffffffffffff1673ffffffffffffffffffffffffffffffffffffffff16815260200180602001838152602001828103825284818151815260200191508051906020019080838360005b838110156102a957808201518184015260208101905061028e565b50505050905090810190601f1680156102d65780820380516001836020036101000a031916815260200191505b5094505050505060405180910390f35b3480156102f257600080fd5b506102fb61079d565b6040518082815260200191505060405180910390f35b34801561031d57600080fd5b5061033c600480360381019080803590602001909291905050506107a3565b604051808473ffffffffffffffffffffffffffffffffffffffff1673ffffffffffffffffffffffffffffffffffffffff16815260200180602001838152602001828103825284818151815260200191508051906020019080838360005b838110156103b4578082015181840152602081019050610399565b50505050905090810190601f1680156103e15780820380516001836020036101000a031916815260200191505b5094505050505060405180910390f35b6000600280549050905090565b600160009054906101000a900473ffffffffffffffffffffffffffffffffffffffff1681565b60003411151561043357600080fd5b60026060604051908101604052803373ffffffffffffffffffffffffffffffffffffffff168152602001838152602001348152509080600181540180825580915050906001820390600052602060002090600302016000909192909190915060008201518160000160006101000a81548173ffffffffffffffffffffffffffffffffffffffff021916908373ffffffffffffffffffffffffffffffffffffffff16021790555060208201518160010190805190602001906104f5929190610894565b5060408201518160020155505050600160009054906101000a900473ffffffffffffffffffffffffffffffffffffffff1673ffffffffffffffffffffffffffffffffffffffff166108fc349081150290604051600060405180830381858888f1935050505015801561056b573d6000803e3d6000fd5b503460008082825401925050819055503373ffffffffffffffffffffffffffffffffffffffff167f4c4cf652c6f14d29f3d8b821ba41309afba5bf3a6f10b64d61665a235049711d34836040518083815260200180602001828103825283818151815260200191508051906020019080838360005b838110156105fb5780820151818401526020810190506105e0565b50505050905090810190601f1680156106285780820380516001836020036101000a031916815260200191505b50935050505060405180910390a250565b60008054905090565b600060606000610650610914565b60028581548110151561065f57fe5b9060005260206000209060030201606060405190810160405290816000820160009054906101000a900473ffffffffffffffffffffffffffffffffffffffff1673ffffffffffffffffffffffffffffffffffffffff1673ffffffffffffffffffffffffffffffffffffffff168152602001600182018054600181600116156101000203166002900480601f0160208091040260200160405190810160405280929190818152602001828054600181600116156101000203166002900480156107685780601f1061073d57610100808354040283529160200191610768565b820191906000526020600020905b81548152906001019060200180831161074b57829003601f168201915b505050505081526020016002820154815250509050806000015181602001518260400151819150935093509350509193909250565b60005481565b6002818154811015156107b257fe5b90600052602060002090600302016000915090508060000160009054906101000a900473ffffffffffffffffffffffffffffffffffffffff1690806001018054600181600116156101000203166002900480601f0160208091040260200160405190810160405280929190818152602001828054600181600116156101000203166002900480156108845780601f1061085957610100808354040283529160200191610884565b820191906000526020600020905b81548152906001019060200180831161086757829003601f168201915b5050505050908060020154905083565b828054600181600116156101000203166002900490600052602060002090601f016020900481019282601f106108d557805160ff1916838001178555610903565b82800160010185558215610903579182015b828111156109025782518255916020019190600101906108e7565b5b509050610910919061094c565b5090565b606060405190810160405280600073ffffffffffffffffffffffffffffffffffffffff16815260200160608152602001600081525090565b61096e91905b8082111561096a576000816000905550600101610952565b5090565b905600a165627a7a72305820099a2d82b3108a16c0b88795d256160f74cd45d0998d4f89b572793c182fc04e0029",
  "source": "pragma solidity ^0.4.24;\n\ncontract BlockchainForPeace {\n    \n\n    // to see the total raised \n    uint public raised;\n    address public charity; \n    \n    //struct for the donation \n    struct Donation {\n        address donor; \n        string message; \n        uint value; \n    }\n    \n    Donation[] public donations; \n    \n    //mapping an address to the donation struct \n    //mapping (address => donation) public donors;\n    event Donate(address indexed from, uint amount, string message);\n    \n    //constructor to initiate the address of the charity being donated to\n    constructor () public {\n        charity = 0x9DB2987A5B5ED98973bDfad2f902aE9F46E34319;\n    }\n   \n    // payable function which auto transfers money to charity address, collects the value and increases the total value counter. Also allows for anonoymous donations\n     function () payable public {\n        raised += msg.value;\n        charity.transfer(msg.value);\n     }\n    // optional message to be sent with donation, peace message.\n    function messageForPeace(string _message) payable public {\n        require(msg.value > 0);\n        donations.push(Donation(msg.sender, _message, msg.value));\n        charity.transfer(msg.value);\n        raised += msg.value;\n        emit Donate(msg.sender, msg.value, _message);\n    }\n\n    function getDonation(uint _index) public view returns (address, string, uint) {\n        Donation memory don = donations[_index];\n        return (don.donor, don.message, don.value);\n    }\n    \n    function getDonationLength() public view returns (uint){\n        return donations.length;\n    }\n\n     function getRaised() public view returns (uint){\n        return raised;\n    }\n}",
  "sourcePath": "/Users/jesse/Desktop/moodles/BlockchainForPeace/TruffleBox/contracts/BlockchainForPeace.sol",
  "compiler": {
    "name": "solc",
    "version": "0.4.24+commit.e67f0147.Emscripten.clang"
  },
  "schemaVersion": "2.0.1",
  "updatedAt": "2019-06-02T15:18:46.318Z"
}