{
  "contractName": "BlockchainForPeace",
  "abi": [
    {
      "constant": true,
      "inputs": [],
      "name": "raised",
      "outputs": [
        {
          "name": "",
          "type": "uint256"
        }
      ],
      "payable": false,
      "stateMutability": "view",
      "type": "function"
    },
    {
      "constant": true,
      "inputs": [
        {
          "name": "",
          "type": "uint256"
        }
      ],
      "name": "donations",
      "outputs": [
        {
          "name": "donor",
          "type": "address"
        },
        {
          "name": "message",
          "type": "string"
        },
        {
          "name": "value",
          "type": "uint256"
        }
      ],
      "payable": false,
      "stateMutability": "view",
      "type": "function"
    },
    {
      "inputs": [],
      "payable": false,
      "stateMutability": "nonpayable",
      "type": "constructor"
    },
    {
      "payable": true,
      "stateMutability": "payable",
      "type": "fallback"
    },
    {
      "anonymous": false,
      "inputs": [
        {
          "indexed": true,
          "name": "from",
          "type": "address"
        },
        {
          "indexed": false,
          "name": "amount",
          "type": "uint256"
        },
        {
          "indexed": false,
          "name": "message",
          "type": "string"
        }
      ],
      "name": "Donate",
      "type": "event"
    },
    {
      "constant": false,
      "inputs": [
        {
          "name": "_message",
          "type": "string"
        }
      ],
      "name": "messageForPeace",
      "outputs": [],
      "payable": true,
      "stateMutability": "payable",
      "type": "function"
    },
    {
      "constant": true,
      "inputs": [
        {
          "name": "_index",
          "type": "uint256"
        }
      ],
      "name": "getDonation",
      "outputs": [
        {
          "name": "",
          "type": "address"
        },
        {
          "name": "",
          "type": "string"
        },
        {
          "name": "",
          "type": "uint256"
        }
      ],
      "payable": false,
      "stateMutability": "view",
      "type": "function"
    },
    {
      "constant": true,
      "inputs": [],
      "name": "getDonationLength",
      "outputs": [
        {
          "name": "",
          "type": "uint256"
        }
      ],
      "payable": false,
      "stateMutability": "view",
      "type": "function"
    },
    {
      "constant": true,
      "inputs": [],
      "name": "getRaised",
      "outputs": [
        {
          "name": "",
          "type": "uint256"
        }
      ],
      "payable": false,
      "stateMutability": "view",
      "type": "function"
    }
  ],
  "bytecode": "0x608060405234801561001057600080fd5b50737cbac639dbb1ec92dc0fbddeedbbf3cfd397387d600160006101000a81548173ffffffffffffffffffffffffffffffffffffffff021916908373ffffffffffffffffffffffffffffffffffffffff160217905550610964806100756000396000f3fe6080604052600436106100555760003560e01c806344a6a8f0146100cf578063a9b5ae83146100fa578063b692c89d146101b5578063ef07a81f146101e0578063f0ea4bfc146102ce578063f8626af8146102f9575b346000808282540192505081905550600160009054906101000a900473ffffffffffffffffffffffffffffffffffffffff1673ffffffffffffffffffffffffffffffffffffffff166108fc349081150290604051600060405180830381858888f193505050501580156100cc573d6000803e3d6000fd5b50005b3480156100db57600080fd5b506100e46103e7565b6040518082815260200191505060405180910390f35b6101b36004803603602081101561011057600080fd5b810190808035906020019064010000000081111561012d57600080fd5b82018360208201111561013f57600080fd5b8035906020019184600183028401116401000000008311171561016157600080fd5b91908080601f016020809104026020016040519081016040528093929190818152602001838380828437600081840152601f19601f8201169050808301925050505050505091929192905050506103f4565b005b3480156101c157600080fd5b506101ca610606565b6040518082815260200191505060405180910390f35b3480156101ec57600080fd5b506102196004803603602081101561020357600080fd5b810190808035906020019092919050505061060f565b604051808473ffffffffffffffffffffffffffffffffffffffff1673ffffffffffffffffffffffffffffffffffffffff16815260200180602001838152602001828103825284818151815260200191508051906020019080838360005b83811015610291578082015181840152602081019050610276565b50505050905090810190601f1680156102be5780820380516001836020036101000a031916815260200191505b5094505050505060405180910390f35b3480156102da57600080fd5b506102e3610767565b6040518082815260200191505060405180910390f35b34801561030557600080fd5b506103326004803603602081101561031c57600080fd5b810190808035906020019092919050505061076d565b604051808473ffffffffffffffffffffffffffffffffffffffff1673ffffffffffffffffffffffffffffffffffffffff16815260200180602001838152602001828103825284818151815260200191508051906020019080838360005b838110156103aa57808201518184015260208101905061038f565b50505050905090810190601f1680156103d75780820380516001836020036101000a031916815260200191505b5094505050505060405180910390f35b6000600280549050905090565b6000341161040157600080fd5b600260405180606001604052803373ffffffffffffffffffffffffffffffffffffffff168152602001838152602001348152509080600181540180825580915050906001820390600052602060002090600302016000909192909190915060008201518160000160006101000a81548173ffffffffffffffffffffffffffffffffffffffff021916908373ffffffffffffffffffffffffffffffffffffffff16021790555060208201518160010190805190602001906104c292919061085c565b5060408201518160020155505050600160009054906101000a900473ffffffffffffffffffffffffffffffffffffffff1673ffffffffffffffffffffffffffffffffffffffff166108fc349081150290604051600060405180830381858888f19350505050158015610538573d6000803e3d6000fd5b503460008082825401925050819055503373ffffffffffffffffffffffffffffffffffffffff167f4c4cf652c6f14d29f3d8b821ba41309afba5bf3a6f10b64d61665a235049711d34836040518083815260200180602001828103825283818151815260200191508051906020019080838360005b838110156105c85780820151818401526020810190506105ad565b50505050905090810190601f1680156105f55780820380516001836020036101000a031916815260200191505b50935050505060405180910390a250565b60008054905090565b60006060600061061d6108dc565b6002858154811061062a57fe5b90600052602060002090600302016040518060600160405290816000820160009054906101000a900473ffffffffffffffffffffffffffffffffffffffff1673ffffffffffffffffffffffffffffffffffffffff1673ffffffffffffffffffffffffffffffffffffffff168152602001600182018054600181600116156101000203166002900480601f0160208091040260200160405190810160405280929190818152602001828054600181600116156101000203166002900480156107325780601f1061070757610100808354040283529160200191610732565b820191906000526020600020905b81548152906001019060200180831161071557829003601f168201915b505050505081526020016002820154815250509050806000015181602001518260400151819150935093509350509193909250565b60005481565b6002818154811061077a57fe5b90600052602060002090600302016000915090508060000160009054906101000a900473ffffffffffffffffffffffffffffffffffffffff1690806001018054600181600116156101000203166002900480601f01602080910402602001604051908101604052809291908181526020018280546001816001161561010002031660029004801561084c5780601f106108215761010080835404028352916020019161084c565b820191906000526020600020905b81548152906001019060200180831161082f57829003601f168201915b5050505050908060020154905083565b828054600181600116156101000203166002900490600052602060002090601f016020900481019282601f1061089d57805160ff19168380011785556108cb565b828001600101855582156108cb579182015b828111156108ca5782518255916020019190600101906108af565b5b5090506108d89190610913565b5090565b6040518060600160405280600073ffffffffffffffffffffffffffffffffffffffff16815260200160608152602001600081525090565b61093591905b80821115610931576000816000905550600101610919565b5090565b9056fea165627a7a72305820ada5c5e04beb7b4d2c4b4fcc85aa4267bc17924d9f43baf59cae7bdada165abf0029",
  "source": "pragma solidity ^0.5.0;\n\ncontract BlockchainForPeace {\n    \n\n    // to see the total raised \n    uint public raised;\n    address payable charity; \n    \n    //struct for the donation \n    struct Donation {\n        address donor; \n        string message; \n        uint value; \n    }\n    \n    Donation[] public donations; \n    \n    //mapping an address to the donation struct \n    //mapping (address => donation) public donors;\n    event Donate(address indexed from, uint amount, string message);\n    \n    //constructor to initiate the address of the charity being donated to\n    constructor () public {\n        charity = 0x7cbac639dbb1Ec92DC0FBDDEEdbbf3Cfd397387D;\n    }\n   \n    // payable function which auto transfers money to charity address, collects the value and increases the total value counter. Also allows for anonoymous donations\n     function () payable external {\n        raised += msg.value;\n        charity.transfer(msg.value);\n     }\n    // optional message to be sent with donation, peace message.\n    function messageForPeace(string memory _message) payable public {\n        require(msg.value > 0);\n        donations.push(Donation(msg.sender, _message, msg.value));\n        charity.transfer(msg.value);\n        raised += msg.value;\n        emit Donate(msg.sender, msg.value, _message);\n    }\n\n    function getDonation(uint _index) public view returns (address, string memory, uint) {\n        Donation memory don = donations[_index];\n        return (don.donor, don.message, don.value);\n    }\n    \n    function getDonationLength() public view returns (uint){\n        return donations.length;\n    }\n\n     function getRaised() public view returns (uint){\n        return raised;\n    }\n}",
  "sourcePath": "/Users/jesse/Desktop/moodles/BFP-contract/TruffleBox/contracts/BlockchainForPeace.sol",
  "compiler": {
    "name": "solc",
    "version": "0.5.8+commit.23d335f2.Emscripten.clang"
  },
  "schemaVersion": "3.0.10",
  "updatedAt": "2019-06-05T18:20:14.655Z",
  "devdoc": {
    "methods": {}
  },
  "userdoc": {
    "methods": {}
  }
}